{
  "contractName": "FlashUSDT",
  "abi": [
    {
      "inputs": [
        {
          "internalType": "uint256",
          "name": "initialSupply",
          "type": "uint256"
        }
      ],
      "stateMutability": "nonpayable",
      "type": "constructor"
    },
    {
      "anonymous": false,
      "inputs": [
        {
          "indexed": true,
          "internalType": "address",
          "name": "owner",
          "type": "address"
        },
        {
          "indexed": true,
          "internalType": "address",
          "name": "spender",
          "type": "address"
        },
        {
          "indexed": false,
          "internalType": "uint256",
          "name": "value",
          "type": "uint256"
        }
      ],
      "name": "Approval",
      "type": "event"
    },
    {
      "anonymous": false,
      "inputs": [
        {
          "indexed": true,
          "internalType": "address",
          "name": "from",
          "type": "address"
        },
        {
          "indexed": true,
          "internalType": "address",
          "name": "to",
          "type": "address"
        },
        {
          "indexed": false,
          "internalType": "uint256",
          "name": "value",
          "type": "uint256"
        }
      ],
      "name": "Transfer",
      "type": "event"
    },
    {
      "inputs": [
        {
          "internalType": "address",
          "name": "owner",
          "type": "address"
        },
        {
          "internalType": "address",
          "name": "spender",
          "type": "address"
        }
      ],
      "name": "allowance",
      "outputs": [
        {
          "internalType": "uint256",
          "name": "",
          "type": "uint256"
        }
      ],
      "stateMutability": "view",
      "type": "function"
    },
    {
      "inputs": [
        {
          "internalType": "address",
          "name": "spender",
          "type": "address"
        },
        {
          "internalType": "uint256",
          "name": "amount",
          "type": "uint256"
        }
      ],
      "name": "approve",
      "outputs": [
        {
          "internalType": "bool",
          "name": "",
          "type": "bool"
        }
      ],
      "stateMutability": "nonpayable",
      "type": "function"
    },
    {
      "inputs": [
        {
          "internalType": "address",
          "name": "account",
          "type": "address"
        }
      ],
      "name": "balanceOf",
      "outputs": [
        {
          "internalType": "uint256",
          "name": "",
          "type": "uint256"
        }
      ],
      "stateMutability": "view",
      "type": "function"
    },
    {
      "inputs": [
        {
          "internalType": "uint256",
          "name": "amount",
          "type": "uint256"
        }
      ],
      "name": "burn",
      "outputs": [],
      "stateMutability": "nonpayable",
      "type": "function"
    },
    {
      "inputs": [],
      "name": "decimals",
      "outputs": [
        {
          "internalType": "uint8",
          "name": "",
          "type": "uint8"
        }
      ],
      "stateMutability": "view",
      "type": "function"
    },
    {
      "inputs": [
        {
          "internalType": "address",
          "name": "account",
          "type": "address"
        },
        {
          "internalType": "uint256",
          "name": "amount",
          "type": "uint256"
        }
      ],
      "name": "mint",
      "outputs": [],
      "stateMutability": "nonpayable",
      "type": "function"
    },
    {
      "inputs": [],
      "name": "name",
      "outputs": [
        {
          "internalType": "string",
          "name": "",
          "type": "string"
        }
      ],
      "stateMutability": "view",
      "type": "function"
    },
    {
      "inputs": [],
      "name": "symbol",
      "outputs": [
        {
          "internalType": "string",
          "name": "",
          "type": "string"
        }
      ],
      "stateMutability": "view",
      "type": "function"
    },
    {
      "inputs": [],
      "name": "totalSupply",
      "outputs": [
        {
          "internalType": "uint256",
          "name": "",
          "type": "uint256"
        }
      ],
      "stateMutability": "view",
      "type": "function"
    },
    {
      "inputs": [
        {
          "internalType": "address",
          "name": "recipient",
          "type": "address"
        },
        {
          "internalType": "uint256",
          "name": "amount",
          "type": "uint256"
        }
      ],
      "name": "transfer",
      "outputs": [
        {
          "internalType": "bool",
          "name": "",
          "type": "bool"
        }
      ],
      "stateMutability": "nonpayable",
      "type": "function"
    },
    {
      "inputs": [
        {
          "internalType": "address",
          "name": "sender",
          "type": "address"
        },
        {
          "internalType": "address",
          "name": "recipient",
          "type": "address"
        },
        {
          "internalType": "uint256",
          "name": "amount",
          "type": "uint256"
        }
      ],
      "name": "transferFrom",
      "outputs": [
        {
          "internalType": "bool",
          "name": "",
          "type": "bool"
        }
      ],
      "stateMutability": "nonpayable",
      "type": "function"
    }
  ],
  "bytecode": "0x60806040523480156200001157600080fd5b5060405162001de638038062001de6833981810160405281019062000037919062000417565b6040518060400160405280600a81526020017f466c6173682055534454000000000000000000000000000000000000000000008152506040518060400160405280600581526020017f665553445400000000000000000000000000000000000000000000000000000081525060068260039080519060200190620000bd92919062000350565b508160049080519060200190620000d692919062000350565b5080600560006101000a81548160ff021916908360ff16021790555050505062000134336200010a6200013b60201b60201c565b60ff16600a6200011b919062000602565b836200012891906200073f565b6200015260201b60201c565b5062000865565b6000600560009054906101000a900460ff16905090565b600073ffffffffffffffffffffffffffffffffffffffff168273ffffffffffffffffffffffffffffffffffffffff161415620001c5576040517f08c379a0000000000000000000000000000000000000000000000000000000008152600401620001bc90620004fa565b60405180910390fd5b620001e181600254620002ed60201b6200055c1790919060201c565b6002819055506200023f816000808573ffffffffffffffffffffffffffffffffffffffff1673ffffffffffffffffffffffffffffffffffffffff16815260200190815260200160002054620002ed60201b6200055c1790919060201c565b6000808473ffffffffffffffffffffffffffffffffffffffff1673ffffffffffffffffffffffffffffffffffffffff168152602001908152602001600020819055508173ffffffffffffffffffffffffffffffffffffffff16600073ffffffffffffffffffffffffffffffffffffffff167fddf252ad1be2c89b69c2b068fc378daa952ba7f163c4a11628f55a4df523b3ef83604051620002e191906200051c565b60405180910390a35050565b6000808284620002fe91906200054a565b90508381101562000346576040517f08c379a00000000000000000000000000000000000000000000000000000000081526004016200033d90620004d8565b60405180910390fd5b8091505092915050565b8280546200035e90620007aa565b90600052602060002090601f016020900481019282620003825760008555620003ce565b82601f106200039d57805160ff1916838001178555620003ce565b82800160010185558215620003ce579182015b82811115620003cd578251825591602001919060010190620003b0565b5b509050620003dd9190620003e1565b5090565b5b80821115620003fc576000816000905550600101620003e2565b5090565b60008151905062000411816200084b565b92915050565b6000602082840312156200042a57600080fd5b60006200043a8482850162000400565b91505092915050565b600062000452601b8362000539565b91507f536166654d6174683a206164646974696f6e206f766572666c6f7700000000006000830152602082019050919050565b600062000494601f8362000539565b91507f54524332303a206d696e7420746f20746865207a65726f2061646472657373006000830152602082019050919050565b620004d281620007a0565b82525050565b60006020820190508181036000830152620004f38162000443565b9050919050565b60006020820190508181036000830152620005158162000485565b9050919050565b6000602082019050620005336000830184620004c7565b92915050565b600082825260208201905092915050565b60006200055782620007a0565b91506200056483620007a0565b9250827fffffffffffffffffffffffffffffffffffffffffffffffffffffffffffffffff038211156200059c576200059b620007e0565b5b828201905092915050565b6000808291508390505b6001851115620005f957808604811115620005d157620005d0620007e0565b5b6001851615620005e15780820291505b8081029050620005f1856200083e565b9450620005b1565b94509492505050565b60006200060f82620007a0565b91506200061c83620007a0565b92506200064b7fffffffffffffffffffffffffffffffffffffffffffffffffffffffffffffffff848462000653565b905092915050565b60008262000665576001905062000738565b8162000675576000905062000738565b81600181146200068e57600281146200069957620006cf565b600191505062000738565b60ff841115620006ae57620006ad620007e0565b5b8360020a915084821115620006c857620006c7620007e0565b5b5062000738565b5060208310610133831016604e8410600b8410161715620007095782820a905083811115620007035762000702620007e0565b5b62000738565b620007188484846001620005a7565b92509050818404811115620007325762000731620007e0565b5b81810290505b9392505050565b60006200074c82620007a0565b91506200075983620007a0565b9250817fffffffffffffffffffffffffffffffffffffffffffffffffffffffffffffffff0483118215151615620007955762000794620007e0565b5b828202905092915050565b6000819050919050565b60006002820490506001821680620007c357607f821691505b60208210811415620007da57620007d96200080f565b5b50919050565b7f4e487b7100000000000000000000000000000000000000000000000000000000600052601160045260246000fd5b7f4e487b7100000000000000000000000000000000000000000000000000000000600052602260045260246000fd5b60008160011c9050919050565b6200085681620007a0565b81146200086257600080fd5b50565b61157180620008756000396000f3fe608060405234801561001057600080fd5b50600436106100a95760003560e01c806340c10f191161007157806340c10f191461016857806342966c681461018457806370a08231146101a057806395d89b41146101d0578063a9059cbb146101ee578063dd62ed3e1461021e576100a9565b806306fdde03146100ae578063095ea7b3146100cc57806318160ddd146100fc57806323b872dd1461011a578063313ce5671461014a575b600080fd5b6100b661024e565b6040516100c391906111e6565b60405180910390f35b6100e660048036038101906100e19190610e42565b6102e0565b6040516100f391906111cb565b60405180910390f35b6101046102f7565b6040516101119190611308565b60405180910390f35b610134600480360381019061012f9190610df3565b610301565b60405161014191906111cb565b60405180910390f35b6101526103b2565b60405161015f9190611323565b60405180910390f35b610182600480360381019061017d9190610e42565b6103c9565b005b61019e60048036038101906101999190610e7e565b6103d7565b005b6101ba60048036038101906101b59190610d8e565b6103e4565b6040516101c79190611308565b60405180910390f35b6101d861042c565b6040516101e591906111e6565b60405180910390f35b61020860048036038101906102039190610e42565b6104be565b60405161021591906111cb565b60405180910390f35b61023860048036038101906102339190610db7565b6104d5565b6040516102459190611308565b60405180910390f35b60606003805461025d9061146c565b80601f01602080910402602001604051908101604052809291908181526020018280546102899061146c565b80156102d65780601f106102ab576101008083540402835291602001916102d6565b820191906000526020600020905b8154815290600101906020018083116102b957829003601f168201915b5050505050905090565b60006102ed3384846105ba565b6001905092915050565b6000600254905090565b600061030e848484610785565b6103a784336103a285600160008a73ffffffffffffffffffffffffffffffffffffffff1673ffffffffffffffffffffffffffffffffffffffff16815260200190815260200160002060003373ffffffffffffffffffffffffffffffffffffffff1673ffffffffffffffffffffffffffffffffffffffff168152602001908152602001600020546109f590919063ffffffff16565b6105ba565b600190509392505050565b6000600560009054906101000a900460ff16905090565b6103d38282610a54565b5050565b6103e13382610bdc565b50565b60008060008373ffffffffffffffffffffffffffffffffffffffff1673ffffffffffffffffffffffffffffffffffffffff168152602001908152602001600020549050919050565b60606004805461043b9061146c565b80601f01602080910402602001604051908101604052809291908181526020018280546104679061146c565b80156104b45780601f10610489576101008083540402835291602001916104b4565b820191906000526020600020905b81548152906001019060200180831161049757829003601f168201915b5050505050905090565b60006104cb338484610785565b6001905092915050565b6000600160008473ffffffffffffffffffffffffffffffffffffffff1673ffffffffffffffffffffffffffffffffffffffff16815260200190815260200160002060008373ffffffffffffffffffffffffffffffffffffffff1673ffffffffffffffffffffffffffffffffffffffff16815260200190815260200160002054905092915050565b600080828461056b919061135a565b9050838110156105b0576040517f08c379a00000000000000000000000000000000000000000000000000000000081526004016105a790611248565b60405180910390fd5b8091505092915050565b600073ffffffffffffffffffffffffffffffffffffffff168373ffffffffffffffffffffffffffffffffffffffff16141561062a576040517f08c379a0000000000000000000000000000000000000000000000000000000008152600401610621906112c8565b60405180910390fd5b600073ffffffffffffffffffffffffffffffffffffffff168273ffffffffffffffffffffffffffffffffffffffff16141561069a576040517f08c379a000000000000000000000000000000000000000000000000000000000815260040161069190611228565b60405180910390fd5b80600160008573ffffffffffffffffffffffffffffffffffffffff1673ffffffffffffffffffffffffffffffffffffffff16815260200190815260200160002060008473ffffffffffffffffffffffffffffffffffffffff1673ffffffffffffffffffffffffffffffffffffffff168152602001908152602001600020819055508173ffffffffffffffffffffffffffffffffffffffff168373ffffffffffffffffffffffffffffffffffffffff167f8c5be1e5ebec7d5bd14f71427d1e84f3dd0314c0f7b2291e5b200ac8c7c3b925836040516107789190611308565b60405180910390a3505050565b600073ffffffffffffffffffffffffffffffffffffffff168373ffffffffffffffffffffffffffffffffffffffff1614156107f5576040517f08c379a00000000000000000000000000000000000000000000000000000000081526004016107ec90611268565b60405180910390fd5b600073ffffffffffffffffffffffffffffffffffffffff168273ffffffffffffffffffffffffffffffffffffffff161415610865576040517f08c379a000000000000000000000000000000000000000000000000000000000815260040161085c90611208565b60405180910390fd5b6108b6816000808673ffffffffffffffffffffffffffffffffffffffff1673ffffffffffffffffffffffffffffffffffffffff168152602001908152602001600020546109f590919063ffffffff16565b6000808573ffffffffffffffffffffffffffffffffffffffff1673ffffffffffffffffffffffffffffffffffffffff16815260200190815260200160002081905550610949816000808573ffffffffffffffffffffffffffffffffffffffff1673ffffffffffffffffffffffffffffffffffffffff1681526020019081526020016000205461055c90919063ffffffff16565b6000808473ffffffffffffffffffffffffffffffffffffffff1673ffffffffffffffffffffffffffffffffffffffff168152602001908152602001600020819055508173ffffffffffffffffffffffffffffffffffffffff168373ffffffffffffffffffffffffffffffffffffffff167fddf252ad1be2c89b69c2b068fc378daa952ba7f163c4a11628f55a4df523b3ef836040516109e89190611308565b60405180910390a3505050565b600082821115610a3a576040517f08c379a0000000000000000000000000000000000000000000000000000000008152600401610a31906112a8565b60405180910390fd5b60008284610a4891906113b0565b90508091505092915050565b600073ffffffffffffffffffffffffffffffffffffffff168273ffffffffffffffffffffffffffffffffffffffff161415610ac4576040517f08c379a0000000000000000000000000000000000000000000000000000000008152600401610abb90611288565b60405180910390fd5b610ad98160025461055c90919063ffffffff16565b600281905550610b30816000808573ffffffffffffffffffffffffffffffffffffffff1673ffffffffffffffffffffffffffffffffffffffff1681526020019081526020016000205461055c90919063ffffffff16565b6000808473ffffffffffffffffffffffffffffffffffffffff1673ffffffffffffffffffffffffffffffffffffffff168152602001908152602001600020819055508173ffffffffffffffffffffffffffffffffffffffff16600073ffffffffffffffffffffffffffffffffffffffff167fddf252ad1be2c89b69c2b068fc378daa952ba7f163c4a11628f55a4df523b3ef83604051610bd09190611308565b60405180910390a35050565b600073ffffffffffffffffffffffffffffffffffffffff168273ffffffffffffffffffffffffffffffffffffffff161415610c4c576040517f08c379a0000000000000000000000000000000000000000000000000000000008152600401610c43906112e8565b60405180910390fd5b610c9d816000808573ffffffffffffffffffffffffffffffffffffffff1673ffffffffffffffffffffffffffffffffffffffff168152602001908152602001600020546109f590919063ffffffff16565b6000808473ffffffffffffffffffffffffffffffffffffffff1673ffffffffffffffffffffffffffffffffffffffff16815260200190815260200160002081905550610cf4816002546109f590919063ffffffff16565b600281905550600073ffffffffffffffffffffffffffffffffffffffff168273ffffffffffffffffffffffffffffffffffffffff167fddf252ad1be2c89b69c2b068fc378daa952ba7f163c4a11628f55a4df523b3ef83604051610d589190611308565b60405180910390a35050565b600081359050610d738161150d565b92915050565b600081359050610d8881611524565b92915050565b600060208284031215610da057600080fd5b6000610dae84828501610d64565b91505092915050565b60008060408385031215610dca57600080fd5b6000610dd885828601610d64565b9250506020610de985828601610d64565b9150509250929050565b600080600060608486031215610e0857600080fd5b6000610e1686828701610d64565b9350506020610e2786828701610d64565b9250506040610e3886828701610d79565b9150509250925092565b60008060408385031215610e5557600080fd5b6000610e6385828601610d64565b9250506020610e7485828601610d79565b9150509250929050565b600060208284031215610e9057600080fd5b6000610e9e84828501610d79565b91505092915050565b610eb0816113f6565b82525050565b6000610ec18261133e565b610ecb8185611349565b9350610edb818560208601611439565b610ee4816114fc565b840191505092915050565b6000610efc602383611349565b91507f54524332303a207472616e7366657220746f20746865207a65726f206164647260008301527f65737300000000000000000000000000000000000000000000000000000000006020830152604082019050919050565b6000610f62602283611349565b91507f54524332303a20617070726f766520746f20746865207a65726f20616464726560008301527f73730000000000000000000000000000000000000000000000000000000000006020830152604082019050919050565b6000610fc8601b83611349565b91507f536166654d6174683a206164646974696f6e206f766572666c6f7700000000006000830152602082019050919050565b6000611008602583611349565b91507f54524332303a207472616e736665722066726f6d20746865207a65726f20616460008301527f64726573730000000000000000000000000000000000000000000000000000006020830152604082019050919050565b600061106e601f83611349565b91507f54524332303a206d696e7420746f20746865207a65726f2061646472657373006000830152602082019050919050565b60006110ae601e83611349565b91507f536166654d6174683a207375627472616374696f6e206f766572666c6f7700006000830152602082019050919050565b60006110ee602483611349565b91507f54524332303a20617070726f76652066726f6d20746865207a65726f2061646460008301527f72657373000000000000000000000000000000000000000000000000000000006020830152604082019050919050565b6000611154602183611349565b91507f54524332303a206275726e2066726f6d20746865207a65726f2061646472657360008301527f73000000000000000000000000000000000000000000000000000000000000006020830152604082019050919050565b6111b681611422565b82525050565b6111c58161142c565b82525050565b60006020820190506111e06000830184610ea7565b92915050565b600060208201905081810360008301526112008184610eb6565b905092915050565b6000602082019050818103600083015261122181610eef565b9050919050565b6000602082019050818103600083015261124181610f55565b9050919050565b6000602082019050818103600083015261126181610fbb565b9050919050565b6000602082019050818103600083015261128181610ffb565b9050919050565b600060208201905081810360008301526112a181611061565b9050919050565b600060208201905081810360008301526112c1816110a1565b9050919050565b600060208201905081810360008301526112e1816110e1565b9050919050565b6000602082019050818103600083015261130181611147565b9050919050565b600060208201905061131d60008301846111ad565b92915050565b600060208201905061133860008301846111bc565b92915050565b600081519050919050565b600082825260208201905092915050565b600061136582611422565b915061137083611422565b9250827fffffffffffffffffffffffffffffffffffffffffffffffffffffffffffffffff038211156113a5576113a461149e565b5b828201905092915050565b60006113bb82611422565b91506113c683611422565b9250828210156113d9576113d861149e565b5b828203905092915050565b60006113ef82611402565b9050919050565b60008115159050919050565b600073ffffffffffffffffffffffffffffffffffffffff82169050919050565b6000819050919050565b600060ff82169050919050565b60005b8381101561145757808201518184015260208101905061143c565b83811115611466576000848401525b50505050565b6000600282049050600182168061148457607f821691505b60208210811415611498576114976114cd565b5b50919050565b7f4e487b7100000000000000000000000000000000000000000000000000000000600052601160045260246000fd5b7f4e487b7100000000000000000000000000000000000000000000000000000000600052602260045260246000fd5b6000601f19601f8301169050919050565b611516816113e4565b811461152157600080fd5b50565b61152d81611422565b811461153857600080fd5b5056fea26469706673582212205d6bd306fbb9650d41bef060895281a9d7e57583a61b2b5572f22ecbe447210c64736f6c63430008000033",
  "source": "// SPDX-License-Identifier: MIT\r\npragma solidity ^0.8.0;\r\n\r\n// SafeMath library\r\nlibrary SafeMath {\r\n    function add(uint256 a, uint256 b) internal pure returns (uint256) {\r\n        uint256 c = a + b;\r\n        require(c >= a, \"SafeMath: addition overflow\");\r\n        return c;\r\n    }\r\n\r\n    function sub(uint256 a, uint256 b) internal pure returns (uint256) {\r\n        require(b <= a, \"SafeMath: subtraction overflow\");\r\n        uint256 c = a - b;\r\n        return c;\r\n    }\r\n\r\n    function mul(uint256 a, uint256 b) internal pure returns (uint256) {\r\n        if (a == 0) {\r\n            return 0;\r\n        }\r\n        uint256 c = a * b;\r\n        require(c / a == b, \"SafeMath: multiplication overflow\");\r\n        return c;\r\n    }\r\n\r\n    function div(uint256 a, uint256 b) internal pure returns (uint256) {\r\n        require(b > 0, \"SafeMath: division by zero\");\r\n        uint256 c = a / b;\r\n        return c;\r\n    }\r\n}\r\n\r\n// ITRC20 Interface\r\ninterface ITRC20 {\r\n    function totalSupply() external view returns (uint256);\r\n    function balanceOf(address account) external view returns (uint256);\r\n    function transfer(address recipient, uint256 amount) external returns (bool);\r\n    function allowance(address owner, address spender) external view returns (uint256);\r\n    function approve(address spender, uint256 amount) external returns (bool);\r\n    function transferFrom(address sender, address recipient, uint256 amount) external returns (bool);\r\n\r\n    event Transfer(address indexed from, address indexed to, uint256 value);\r\n    event Approval(address indexed owner, address indexed spender, uint256 value);\r\n}\r\n\r\n// TRC20 Implementation\r\ncontract TRC20 is ITRC20 {\r\n    using SafeMath for uint256;\r\n\r\n    mapping (address => uint256) private _balances;\r\n    mapping (address => mapping (address => uint256)) private _allowances;\r\n    uint256 private _totalSupply;\r\n\r\n    function totalSupply() public view override returns (uint256) {\r\n        return _totalSupply;\r\n    }\r\n\r\n    function balanceOf(address account) public view override returns (uint256) {\r\n        return _balances[account];\r\n    }\r\n\r\n    function transfer(address recipient, uint256 amount) public override returns (bool) {\r\n        _transfer(msg.sender, recipient, amount);\r\n        return true;\r\n    }\r\n\r\n    function allowance(address owner, address spender) public view override returns (uint256) {\r\n        return _allowances[owner][spender];\r\n    }\r\n\r\n    function approve(address spender, uint256 amount) public override returns (bool) {\r\n        _approve(msg.sender, spender, amount);\r\n        return true;\r\n    }\r\n\r\n    function transferFrom(address sender, address recipient, uint256 amount) public override returns (bool) {\r\n        _transfer(sender, recipient, amount);\r\n        _approve(sender, msg.sender, _allowances[sender][msg.sender].sub(amount));\r\n        return true;\r\n    }\r\n\r\n    function _transfer(address sender, address recipient, uint256 amount) internal {\r\n        require(sender != address(0), \"TRC20: transfer from the zero address\");\r\n        require(recipient != address(0), \"TRC20: transfer to the zero address\");\r\n\r\n        _balances[sender] = _balances[sender].sub(amount);\r\n        _balances[recipient] = _balances[recipient].add(amount);\r\n        emit Transfer(sender, recipient, amount);\r\n    }\r\n\r\n    function _mint(address account, uint256 amount) internal {\r\n        require(account != address(0), \"TRC20: mint to the zero address\");\r\n\r\n        _totalSupply = _totalSupply.add(amount);\r\n        _balances[account] = _balances[account].add(amount);\r\n        emit Transfer(address(0), account, amount);\r\n    }\r\n\r\n    function _burn(address account, uint256 amount) internal {\r\n        require(account != address(0), \"TRC20: burn from the zero address\");\r\n\r\n        _balances[account] = _balances[account].sub(amount);\r\n        _totalSupply = _totalSupply.sub(amount);\r\n        emit Transfer(account, address(0), amount);\r\n    }\r\n\r\n    function _approve(address owner, address spender, uint256 amount) internal {\r\n        require(owner != address(0), \"TRC20: approve from the zero address\");\r\n        require(spender != address(0), \"TRC20: approve to the zero address\");\r\n\r\n        _allowances[owner][spender] = amount;\r\n        emit Approval(owner, spender, amount);\r\n    }\r\n}\r\n\r\n// TRC20Detailed Implementation\r\ncontract TRC20Detailed is TRC20 {\r\n    string private _name;\r\n    string private _symbol;\r\n    uint8 private _decimals;\r\n\r\n    constructor (string memory name_, string memory symbol_, uint8 decimals_) {\r\n        _name = name_;\r\n        _symbol = symbol_;\r\n        _decimals = decimals_;\r\n    }\r\n\r\n    function name() public view returns (string memory) {\r\n        return _name;\r\n    }\r\n\r\n    function symbol() public view returns (string memory) {\r\n        return _symbol;\r\n    }\r\n\r\n    function decimals() public view returns (uint8) {\r\n        return _decimals;\r\n    }\r\n}\r\n\r\n// FlashUSDT Contract\r\ncontract FlashUSDT is TRC20Detailed {\r\n    constructor(uint256 initialSupply) TRC20Detailed(\"Flash USDT\", \"fUSDT\", 6) {\r\n        _mint(msg.sender, initialSupply * (10 ** uint256(decimals())));\r\n    }\r\n\r\n    function mint(address account, uint256 amount) public {\r\n        _mint(account, amount);\r\n    }\r\n\r\n    function burn(uint256 amount) public {\r\n        _burn(msg.sender, amount);\r\n    }\r\n}",
  "sourcePath": "contracts/FlashUSDT.sol",
  "compiler": {
    "name": "solc",
    "version": "0.8.0+commit.c7dfd78e.Emscripten.clang"
  },
  "schemaVersion": "2.0.1",
  "updatedAt": "2024-08-08T11:23:40.690Z"
}